{"abi":[{"type":"constructor","inputs":[],"stateMutability":"nonpayable"},{"type":"function","name":"I_OWNER","inputs":[],"outputs":[{"name":"","type":"address","internalType":"address"}],"stateMutability":"view"},{"type":"function","name":"addCertification","inputs":[{"name":"productId","type":"uint256","internalType":"uint256"},{"name":"certification","type":"string","internalType":"string"}],"outputs":[],"stateMutability":"nonpayable"},{"type":"function","name":"approveQuality","inputs":[{"name":"productId","type":"uint256","internalType":"uint256"},{"name":"expiryDate","type":"uint256","internalType":"uint256"}],"outputs":[],"stateMutability":"nonpayable"},{"type":"function","name":"assignDistributor","inputs":[{"name":"productId","type":"uint256","internalType":"uint256"},{"name":"distributor","type":"address","internalType":"address"}],"outputs":[],"stateMutability":"nonpayable"},{"type":"function","name":"assignQualityInspector","inputs":[{"name":"productId","type":"uint256","internalType":"uint256"},{"name":"inspector","type":"address","internalType":"address"}],"outputs":[],"stateMutability":"nonpayable"},{"type":"function","name":"assignRetailer","inputs":[{"name":"productId","type":"uint256","internalType":"uint256"},{"name":"retailer","type":"address","internalType":"address"}],"outputs":[],"stateMutability":"nonpayable"},{"type":"function","name":"createProduct","inputs":[{"name":"_name","type":"string","internalType":"string"},{"name":"_batchId","type":"string","internalType":"string"},{"name":"_category","type":"string","internalType":"string"},{"name":"_productionDate","type":"uint256","internalType":"uint256"},{"name":"_metadataUri","type":"string","internalType":"string"}],"outputs":[{"name":"","type":"uint256","internalType":"uint256"}],"stateMutability":"nonpayable"},{"type":"function","name":"distributorDetailsByAddress","inputs":[{"name":"","type":"address","internalType":"address"}],"outputs":[{"name":"","type":"string","internalType":"string"}],"stateMutability":"view"},{"type":"function","name":"distributorsList","inputs":[{"name":"","type":"uint256","internalType":"uint256"}],"outputs":[{"name":"","type":"address","internalType":"address"}],"stateMutability":"view"},{"type":"function","name":"getBasicProductInfo","inputs":[{"name":"productId","type":"uint256","internalType":"uint256"}],"outputs":[{"name":"id","type":"uint256","internalType":"uint256"},{"name":"name","type":"string","internalType":"string"},{"name":"batchId","type":"string","internalType":"string"},{"name":"category","type":"string","internalType":"string"},{"name":"producer","type":"address","internalType":"address"},{"name":"currentOwner","type":"address","internalType":"address"},{"name":"qualityApproved","type":"bool","internalType":"bool"}],"stateMutability":"view"},{"type":"function","name":"getDistributorDetails","inputs":[{"name":"distributor","type":"address","internalType":"address"}],"outputs":[{"name":"","type":"string","internalType":"string"}],"stateMutability":"view"},{"type":"function","name":"getFullProductDetails","inputs":[{"name":"productId","type":"uint256","internalType":"uint256"}],"outputs":[{"name":"id","type":"uint256","internalType":"uint256"},{"name":"name","type":"string","internalType":"string"},{"name":"batchId","type":"string","internalType":"string"},{"name":"category","type":"string","internalType":"string"},{"name":"producer","type":"address","internalType":"address"},{"name":"productionDate","type":"uint256","internalType":"uint256"},{"name":"expiryDate","type":"uint256","internalType":"uint256"},{"name":"qualityInspector","type":"address","internalType":"address"},{"name":"qualityApproved","type":"bool","internalType":"bool"},{"name":"distributor","type":"address","internalType":"address"},{"name":"retailer","type":"address","internalType":"address"},{"name":"currentOwner","type":"address","internalType":"address"}],"stateMutability":"view"},{"type":"function","name":"getOwnershipHistory","inputs":[{"name":"productId","type":"uint256","internalType":"uint256"}],"outputs":[{"name":"","type":"address[]","internalType":"address[]"},{"name":"","type":"uint256[]","internalType":"uint256[]"}],"stateMutability":"view"},{"type":"function","name":"getProducerDetails","inputs":[{"name":"producer","type":"address","internalType":"address"}],"outputs":[{"name":"","type":"string","internalType":"string"}],"stateMutability":"view"},{"type":"function","name":"getQualityInspectorDetails","inputs":[{"name":"inspector","type":"address","internalType":"address"}],"outputs":[{"name":"","type":"string","internalType":"string"}],"stateMutability":"view"},{"type":"function","name":"getRetailerDetails","inputs":[{"name":"retailer","type":"address","internalType":"address"}],"outputs":[{"name":"","type":"string","internalType":"string"}],"stateMutability":"view"},{"type":"function","name":"isDistributorRegistered","inputs":[{"name":"","type":"address","internalType":"address"}],"outputs":[{"name":"","type":"bool","internalType":"bool"}],"stateMutability":"view"},{"type":"function","name":"isProducerRegistered","inputs":[{"name":"","type":"address","internalType":"address"}],"outputs":[{"name":"","type":"bool","internalType":"bool"}],"stateMutability":"view"},{"type":"function","name":"isQualityInspectorRegistered","inputs":[{"name":"","type":"address","internalType":"address"}],"outputs":[{"name":"","type":"bool","internalType":"bool"}],"stateMutability":"view"},{"type":"function","name":"isRetailerRegistered","inputs":[{"name":"","type":"address","internalType":"address"}],"outputs":[{"name":"","type":"bool","internalType":"bool"}],"stateMutability":"view"},{"type":"function","name":"nextProductId","inputs":[],"outputs":[{"name":"","type":"uint256","internalType":"uint256"}],"stateMutability":"view"},{"type":"function","name":"producerDetailsByAddress","inputs":[{"name":"","type":"address","internalType":"address"}],"outputs":[{"name":"","type":"string","internalType":"string"}],"stateMutability":"view"},{"type":"function","name":"producersList","inputs":[{"name":"","type":"uint256","internalType":"uint256"}],"outputs":[{"name":"","type":"address","internalType":"address"}],"stateMutability":"view"},{"type":"function","name":"productById","inputs":[{"name":"","type":"uint256","internalType":"uint256"}],"outputs":[{"name":"productId","type":"uint256","internalType":"uint256"},{"name":"name","type":"string","internalType":"string"},{"name":"batchId","type":"string","internalType":"string"},{"name":"category","type":"string","internalType":"string"},{"name":"producer","type":"address","internalType":"address"},{"name":"productionDate","type":"uint256","internalType":"uint256"},{"name":"expiryDate","type":"uint256","internalType":"uint256"},{"name":"qualityInspector","type":"address","internalType":"address"},{"name":"qualityApproved","type":"bool","internalType":"bool"},{"name":"distributor","type":"address","internalType":"address"},{"name":"retailer","type":"address","internalType":"address"},{"name":"currentOwner","type":"address","internalType":"address"},{"name":"logisticsInfo","type":"string","internalType":"string"},{"name":"verified","type":"bool","internalType":"bool"},{"name":"metadataUri","type":"string","internalType":"string"}],"stateMutability":"view"},{"type":"function","name":"products","inputs":[{"name":"","type":"uint256","internalType":"uint256"}],"outputs":[{"name":"productId","type":"uint256","internalType":"uint256"},{"name":"name","type":"string","internalType":"string"},{"name":"batchId","type":"string","internalType":"string"},{"name":"category","type":"string","internalType":"string"},{"name":"producer","type":"address","internalType":"address"},{"name":"productionDate","type":"uint256","internalType":"uint256"},{"name":"expiryDate","type":"uint256","internalType":"uint256"},{"name":"qualityInspector","type":"address","internalType":"address"},{"name":"qualityApproved","type":"bool","internalType":"bool"},{"name":"distributor","type":"address","internalType":"address"},{"name":"retailer","type":"address","internalType":"address"},{"name":"currentOwner","type":"address","internalType":"address"},{"name":"logisticsInfo","type":"string","internalType":"string"},{"name":"verified","type":"bool","internalType":"bool"},{"name":"metadataUri","type":"string","internalType":"string"}],"stateMutability":"view"},{"type":"function","name":"qualityInspectorDetailsByAddress","inputs":[{"name":"","type":"address","internalType":"address"}],"outputs":[{"name":"","type":"string","internalType":"string"}],"stateMutability":"view"},{"type":"function","name":"qualityInspectorsList","inputs":[{"name":"","type":"uint256","internalType":"uint256"}],"outputs":[{"name":"","type":"address","internalType":"address"}],"stateMutability":"view"},{"type":"function","name":"registerDistributor","inputs":[{"name":"_distributor","type":"address","internalType":"address"},{"name":"_details","type":"string","internalType":"string"}],"outputs":[],"stateMutability":"nonpayable"},{"type":"function","name":"registerProducer","inputs":[{"name":"_producer","type":"address","internalType":"address"},{"name":"_details","type":"string","internalType":"string"}],"outputs":[],"stateMutability":"nonpayable"},{"type":"function","name":"registerQualityInspector","inputs":[{"name":"_inspector","type":"address","internalType":"address"},{"name":"_details","type":"string","internalType":"string"}],"outputs":[],"stateMutability":"nonpayable"},{"type":"function","name":"registerRetailer","inputs":[{"name":"_retailer","type":"address","internalType":"address"},{"name":"_details","type":"string","internalType":"string"}],"outputs":[],"stateMutability":"nonpayable"},{"type":"function","name":"retailerDetailsByAddress","inputs":[{"name":"","type":"address","internalType":"address"}],"outputs":[{"name":"","type":"string","internalType":"string"}],"stateMutability":"view"},{"type":"function","name":"retailersList","inputs":[{"name":"","type":"uint256","internalType":"uint256"}],"outputs":[{"name":"","type":"address","internalType":"address"}],"stateMutability":"view"},{"type":"function","name":"sellToConsumer","inputs":[{"name":"productId","type":"uint256","internalType":"uint256"},{"name":"buyer","type":"address","internalType":"address"}],"outputs":[],"stateMutability":"nonpayable"},{"type":"function","name":"totalDistributors","inputs":[],"outputs":[{"name":"","type":"uint256","internalType":"uint256"}],"stateMutability":"view"},{"type":"function","name":"totalProducers","inputs":[],"outputs":[{"name":"","type":"uint256","internalType":"uint256"}],"stateMutability":"view"},{"type":"function","name":"totalQualityInspectors","inputs":[],"outputs":[{"name":"","type":"uint256","internalType":"uint256"}],"stateMutability":"view"},{"type":"function","name":"totalRetailers","inputs":[],"outputs":[{"name":"","type":"uint256","internalType":"uint256"}],"stateMutability":"view"},{"type":"event","name":"CertificationAdded","inputs":[{"name":"productId","type":"uint256","indexed":true,"internalType":"uint256"},{"name":"certification","type":"string","indexed":false,"internalType":"string"}],"anonymous":false},{"type":"event","name":"DistributorRegistered","inputs":[{"name":"distributor","type":"address","indexed":true,"internalType":"address"},{"name":"details","type":"string","indexed":false,"internalType":"string"}],"anonymous":false},{"type":"event","name":"ProducerRegistered","inputs":[{"name":"producer","type":"address","indexed":true,"internalType":"address"},{"name":"details","type":"string","indexed":false,"internalType":"string"}],"anonymous":false},{"type":"event","name":"ProductCreated","inputs":[{"name":"productId","type":"uint256","indexed":true,"internalType":"uint256"},{"name":"producer","type":"address","indexed":true,"internalType":"address"}],"anonymous":false},{"type":"event","name":"QualityApproved","inputs":[{"name":"productId","type":"uint256","indexed":true,"internalType":"uint256"},{"name":"inspector","type":"address","indexed":true,"internalType":"address"}],"anonymous":false},{"type":"event","name":"QualityInspectorAssigned","inputs":[{"name":"productId","type":"uint256","indexed":true,"internalType":"uint256"},{"name":"inspector","type":"address","indexed":true,"internalType":"address"}],"anonymous":false},{"type":"event","name":"QualityInspectorRegistered","inputs":[{"name":"inspector","type":"address","indexed":true,"internalType":"address"},{"name":"details","type":"string","indexed":false,"internalType":"string"}],"anonymous":false},{"type":"event","name":"RetailerRegistered","inputs":[{"name":"retailer","type":"address","indexed":true,"internalType":"address"},{"name":"details","type":"string","indexed":false,"internalType":"string"}],"anonymous":false},{"type":"event","name":"Transferred","inputs":[{"name":"productId","type":"uint256","indexed":true,"internalType":"uint256"},{"name":"from","type":"address","indexed":true,"internalType":"address"},{"name":"to","type":"address","indexed":true,"internalType":"address"}],"anonymous":false}],"bytecode":{"object":"0x60a06040523461004c576100116100be565b610019610051565b6142c36100d08239608051818181610d3201528181612bd30152818161335501528181613c780152613dfc01526142c390f35b610057565b60405190565b5f80fd5b5f1b90565b9061006c5f199161005b565b9181191691161790565b90565b90565b90565b61009361008e61009892610076565b61007c565b610079565b90565b90565b906100b36100ae6100ba9261007f565b61009b565b8254610060565b9055565b6100c960015f61009e565b3360805256fe60806040526004361015610013575b611898565b61001d5f3561027c565b8063051fbd791461027757806309b96e06146102725780630cc94acc1461026d5780630d1a9f341461026857806332e086a1146102635780633d2384651461025e57806345ea9e52146102595780634871276714610254578063487a0b271461024f5780634c37cf651461024a5780634de91a631461024557806352e4b6cf146102405780635d389a791461023b578063605f9998146102365780636185109d1461023157806363ba83151461022c5780636c230be81461022757806373b274ab1461022257806378dff77b1461021d5780637acc0b20146102185780637e5395a1146102135780638e0e4e091461020e57806398812dab1461020957806399363edb14610204578063994e8f26146101ff5780639e6c742b146101fa578063a30b475f146101f5578063aa9a533f146101f0578063af5653d3146101eb578063b2db6140146101e6578063bf191169146101e1578063d7fa5473146101dc578063de83612d146101d7578063e0623046146101d2578063e77d8c79146101cd578063edd4b7f5146101c8578063f1dbaccb146101c35763f9070d450361000e57611853565b61175c565b6115ee565b6115a1565b61156c565b61150b565b6114be565b61148a565b611455565b611419565b61136f565b611323565b6111ee565b6111b9565b611159565b6110f7565b6110c3565b61108e565b611029565b610d54565b610cfb565b610cc6565b610c78565b610c43565b610a01565b6109b4565b610980565b610905565b610899565b610864565b610803565b6107cf565b610755565b6106e4565b6105a7565b610559565b610412565b6103a9565b60e01c90565b60405190565b5f80fd5b5f80fd5b5f80fd5b60018060a01b031690565b6102a890610294565b90565b6102b48161029f565b036102bb57565b5f80fd5b905035906102cc826102ab565b565b906020828203126102e7576102e4915f016102bf565b90565b61028c565b90565b6103036102fe61030892610294565b6102ec565b610294565b90565b610314906102ef565b90565b6103209061030b565b90565b9061032d90610317565b5f5260205260405f2090565b1c90565b60ff1690565b6103539060086103589302610339565b61033d565b90565b906103669154610343565b90565b61037f9061037a6009915f92610323565b61035b565b90565b151590565b61039090610382565b9052565b91906103a7905f60208501940190610387565b565b346103d9576103d56103c46103bf3660046102ce565b610369565b6103cc610282565b91829182610394565b0390f35b610288565b5f9103126103e857565b61028c565b90565b6103f9906103ed565b9052565b9190610410905f602085019401906103f0565b565b34610442576104223660046103de565b61043e61042d6118a0565b610435610282565b918291826103fd565b0390f35b610288565b610450816103ed565b0361045757565b5f80fd5b9050359061046882610447565b565b9060208282031261048357610480915f0161045b565b90565b61028c565b634e487b7160e01b5f52603260045260245ffd5b5490565b5f5260205f2090565b5f5260205f2090565b6104bb8161049c565b8210156104d5576104cd6001916104a0565b910201905f90565b610488565b60018060a01b031690565b6104f59060086104fa9302610339565b6104da565b90565b9061050891546104e5565b90565b60036105168161049c565b821015610533576105309161052a916104b2565b906104fd565b90565b5f80fd5b6105409061029f565b9052565b9190610557905f60208501940190610537565b565b346105895761058561057461056f36600461046a565b61050b565b61057c610282565b91829182610544565b0390f35b610288565b6105a49061059f600a915f92610323565b61035b565b90565b346105d7576105d36105c26105bd3660046102ce565b61058e565b6105ca610282565b91829182610394565b0390f35b610288565b5f80fd5b5f80fd5b5f80fd5b909182601f830112156106225781359167ffffffffffffffff831161061d57602001926001830284011161061857565b6105e4565b6105e0565b6105dc565b919060a0838203126106df575f83013567ffffffffffffffff81116106da57816106529185016105e8565b929093602081013567ffffffffffffffff81116106d557836106759183016105e8565b929093604083013567ffffffffffffffff81116106d057816106989185016105e8565b9290936106a8836060830161045b565b92608082013567ffffffffffffffff81116106cb576106c792016105e8565b9091565b610290565b610290565b610290565b610290565b61028c565b3461071e5761071a6107096106fa366004610627565b9796909695919594929461286c565b610711610282565b918291826103fd565b0390f35b610288565b919060408382031261074b578061073f610748925f860161045b565b936020016102bf565b90565b61028c565b5f0190565b346107845761076e610768366004610723565b90612b33565b610776610282565b8061078081610750565b0390f35b610288565b9190916040818403126107ca576107a2835f83016102bf565b92602082013567ffffffffffffffff81116107c5576107c192016105e8565b9091565b610290565b61028c565b346107fe576107e86107e2366004610789565b91612d80565b6107f0610282565b806107fa81610750565b0390f35b610288565b34610833576108133660046103de565b61082f61081e612d8d565b610826610282565b918291826103fd565b0390f35b610288565b60046108438161049c565b8210156108605761085d91610857916104b2565b906104fd565b90565b5f80fd5b346108945761089061087f61087a36600461046a565b610838565b610887610282565b91829182610544565b0390f35b610288565b346108c9576108a93660046103de565b6108c56108b4612da3565b6108bc610282565b918291826103fd565b0390f35b610288565b90565b6108e19060086108e69302610339565b6108ce565b90565b906108f491546108d1565b90565b6109025f5f906108e9565b90565b34610935576109153660046103de565b6109316109206108f7565b610928610282565b918291826103fd565b0390f35b610288565b91909160408184031261097b57610953835f830161045b565b92602082013567ffffffffffffffff81116109765761097292016105e8565b9091565b610290565b61028c565b346109af5761099961099336600461093a565b91612f94565b6109a1610282565b806109ab81610750565b0390f35b610288565b346109e3576109cd6109c7366004610723565b906132b0565b6109d5610282565b806109df81610750565b0390f35b610288565b6109fe906109f96007915f92610323565b61035b565b90565b34610a3157610a2d610a1c610a173660046102ce565b6109e8565b610a24610282565b91829182610394565b0390f35b610288565b90610a4090610317565b5f5260205260405f2090565b634e487b7160e01b5f525f60045260245ffd5b634e487b7160e01b5f52602260045260245ffd5b9060016002830492168015610a93575b6020831014610a8e57565b610a5f565b91607f1691610a83565b60209181520190565b5f5260205f2090565b905f9291805490610ac9610ac283610a73565b8094610a9d565b916001811690815f14610b205750600114610ae4575b505050565b610af19192939450610aa6565b915f925b818410610b0857505001905f8080610adf565b60018160209295939554848601520191019290610af5565b92949550505060ff19168252151560200201905f8080610adf565b90610b4591610aaf565b90565b601f801991011690565b634e487b7160e01b5f52604160045260245ffd5b90610b7090610b48565b810190811067ffffffffffffffff821117610b8a57604052565b610b52565b90610baf610ba892610b9f610282565b93848092610b3b565b0383610b66565b565b905f10610bc457610bc190610b8f565b90565b610a4c565b610bdf90610bda600e915f92610a36565b610bb1565b90565b5190565b60209181520190565b90825f9392825e0152565b610c19610c22602093610c2793610c1081610be2565b93848093610be6565b95869101610bef565b610b48565b0190565b610c409160208201915f818403910152610bfa565b90565b34610c7357610c6f610c5e610c593660046102ce565b610bc9565b610c66610282565b91829182610c2b565b0390f35b610288565b34610ca857610ca4610c93610c8e3660046102ce565b6132cd565b610c9b610282565b91829182610c2b565b0390f35b610288565b610cc390610cbe600b915f92610a36565b610bb1565b90565b34610cf657610cf2610ce1610cdc3660046102ce565b610cad565b610ce9610282565b91829182610c2b565b0390f35b610288565b34610d2b57610d27610d16610d113660046102ce565b613308565b610d1e610282565b91829182610c2b565b0390f35b610288565b7f000000000000000000000000000000000000000000000000000000000000000090565b34610d8457610d643660046103de565b610d80610d6f610d30565b610d77610282565b91829182610544565b0390f35b610288565b5490565b5f5260205f2090565b610d9f81610d89565b821015610db957610db1601191610d8d565b910201905f90565b610488565b5f1c90565b610dcf610dd491610dbe565b6108ce565b90565b610de19054610dc3565b90565b610df0610df591610dbe565b6104da565b90565b610e029054610de4565b90565b610e11610e1691610dbe565b61033d565b90565b610e239054610e05565b90565b60081c90565b610e38610e3d91610e26565b6104da565b90565b610e4a9054610e2c565b90565b600190610e5982610d89565b811015610f2d57610e6991610d96565b50610e755f8201610dd7565b91610e8260018301610b8f565b91610e8f60028201610b8f565b91610e9c60038301610b8f565b91610ea960048201610df8565b91610eb660058301610dd7565b91610ec360068201610dd7565b91610ed060078301610df8565b91610edd60098201610e19565b91610eea60098301610e40565b91610ef7600a8201610df8565b91610f04600b8301610df8565b91610f11600e8201610b8f565b91610f2a6010610f23600f8501610e19565b9301610b8f565b90565b5f80fd5b809d9c9a9896949392919b9997959b6101e08201915f01610f51916103f0565b8d8082039060200152610f6391610bfa565b8c8082039060400152610f7591610bfa565b8b810360608d0152610f8691610bfa565b9760808b01610f9491610537565b60a08a01610fa1916103f0565b60c08901610fae916103f0565b60e08801610fbb91610537565b6101008701610fc991610387565b6101208601610fd791610537565b6101408501610fe591610537565b6101608401610ff391610537565b82810361018084015261100591610bfa565b916101a0820161101491610387565b808203906101c0015261102691610bfa565b90565b34611070573661103a90600461046a565b61104390610e4d565b9a61105e9e9c9e9a919a999299989398979497969596610282565b9e8f9e8f9e61106c9f610f31565b0390f35b610288565b61108b90611086600d915f92610a36565b610bb1565b90565b346110be576110ba6110a96110a43660046102ce565b611075565b6110b1610282565b91829182610c2b565b0390f35b610288565b346110f2576110dc6110d6366004610789565b916134ba565b6110e4610282565b806110ee81610750565b0390f35b610288565b346111275761112361111261110d3660046102ce565b613549565b61111a610282565b91829182610c2b565b0390f35b610288565b91906040838203126111545780611148611151925f860161045b565b9360200161045b565b90565b61028c565b346111885761117261116c36600461112c565b9061363e565b61117a610282565b8061118481610750565b0390f35b610288565b60056111988161049c565b8210156111b5576111b2916111ac916104b2565b906104fd565b90565b5f80fd5b346111e9576111e56111d46111cf36600461046a565b61118d565b6111dc610282565b91829182610544565b0390f35b610288565b3461121e5761121a6112096112043660046102ce565b6136cc565b611211610282565b91829182610c2b565b0390f35b610288565b61123761123261123c926103ed565b6102ec565b6103ed565b90565b9061124990611223565b5f5260205260405f2090565b61126090600261123f565b61126b5f8201610dd7565b9161127860018301610b8f565b9161128560028201610b8f565b9161129260038301610b8f565b9161129f60048201610df8565b916112ac60058301610dd7565b916112b960068201610dd7565b916112c660078301610df8565b916112d360098201610e19565b916112e060098301610e40565b916112ed600a8201610df8565b916112fa600b8301610df8565b91611307600e8201610b8f565b916113206010611319600f8501610e19565b9301610b8f565b90565b3461136a573661133490600461046a565b61133d90611255565b9a6113589e9c9e9a919a999299989398979497969596610282565b9e8f9e8f9e6113669f610f31565b0390f35b610288565b3461139e57611388611382366004610723565b906138fe565b611390610282565b8061139a81610750565b0390f35b610288565b926113fb60c0956113ed611406936113df6114179b96611410989e9d9b9e6113d260e08c01925f8d01906103f0565b8a820360208c0152610bfa565b9088820360408a0152610bfa565b908682036060880152610bfa565b986080850190610537565b60a0830190610537565b0190610387565b565b346114505761144c61143461142f36600461046a565b613912565b93611443979597939193610282565b978897886113a3565b0390f35b610288565b34611485576114653660046103de565b6114816114706139ec565b611478610282565b918291826103fd565b0390f35b610288565b346114b9576114a361149d366004610723565b90613c5a565b6114ab610282565b806114b581610750565b0390f35b610288565b346114ed576114d76114d1366004610789565b91613ddd565b6114df610282565b806114e981610750565b0390f35b610288565b611508906115036008915f92610323565b61035b565b90565b3461153b576115376115266115213660046102ce565b6114f2565b61152e610282565b91829182610394565b0390f35b610288565b600661154b8161049c565b821015611568576115659161155f916104b2565b906104fd565b90565b5f80fd5b3461159c5761159861158761158236600461046a565b611540565b61158f610282565b91829182610544565b0390f35b610288565b346115d0576115ba6115b4366004610789565b91613f61565b6115c2610282565b806115cc81610750565b0390f35b610288565b6115eb906115e6600c915f92610a36565b610bb1565b90565b3461161e5761161a6116096116043660046102ce565b6115d5565b611611610282565b91829182610c2b565b0390f35b610288565b5190565b60209181520190565b60200190565b61163f9061029f565b9052565b9061165081602093611636565b0190565b60200190565b9061167761167161166a84611623565b8093611627565b92611630565b905f5b8181106116875750505090565b9091926116a061169a6001928651611643565b94611654565b910191909161167a565b5190565b60209181520190565b60200190565b6116c6906103ed565b9052565b906116d7816020936116bd565b0190565b60200190565b906116fe6116f86116f1846116aa565b80936116ae565b926116b7565b905f5b81811061170e5750505090565b90919261172761172160019286516116ca565b946116db565b9101919091611701565b909161174b6117599360408401908482035f86015261165a565b9160208184039101526116e1565b90565b3461178d5761177461176f36600461046a565b6140d4565b90611789611780610282565b92839283611731565b0390f35b610288565b999795939291909c9b9a9896949c6101808b01905f8c016117b2916103f0565b8a810360208c01526117c391610bfa565b89810360408b01526117d491610bfa565b88810360608a01526117e591610bfa565b99608088016117f391610537565b60a08701611800916103f0565b60c0860161180d916103f0565b60e0850161181a91610537565b610100840161182891610387565b610120830161183691610537565b610140820161184491610537565b6101600161185191610537565b565b346118935761188f61186e61186936600461046a565b61413e565b986118869c9a9c989198979297969396959495610282565b9c8d9c8d611792565b0390f35b610288565b5f80fd5b5f90565b6118a861189c565b506118b3600561049c565b90565b5f7f4e6f74206120726567697374657265642070726f647563657200000000000000910152565b6118ea6019602092610be6565b6118f3816118b6565b0190565b61190c9060208101905f8183039101526118dd565b90565b1561191657565b61191e610282565b62461bcd60e51b815280611934600482016118f7565b0390fd5b9061196699989796959493929161196161195c61195760073390610323565b610e19565b61190f565b61269a565b90565b634e487b7160e01b5f52601160045260245ffd5b611986906103ed565b5f1981146119945760010190565b611969565b5f1b90565b906119aa5f1991611999565b9181191691161790565b90565b906119cc6119c76119d392611223565b6119b4565b825461199e565b9055565b90565b5090565b601f602091010490565b1b90565b91906008611a07910291611a015f19846119e8565b926119e8565b9181191691161790565b9190611a27611a22611a2f93611223565b6119b4565b9083546119ec565b9055565b611a4591611a3f61189c565b91611a11565b565b5b818110611a53575050565b80611a605f600193611a33565b01611a48565b9190601f8111611a76575b505050565b611a82611aa793610aa6565b906020611a8e846119de565b83019310611aaf575b611aa0906119de565b0190611a47565b5f8080611a71565b9150611aa081929050611a97565b90611acd905f1990600802610339565b191690565b81611adc91611abd565b906002021790565b91611aef90826119da565b9067ffffffffffffffff8211611bae57611b1382611b0d8554610a73565b85611a66565b5f90601f8311600114611b4657918091611b35935f92611b3a575b5050611ad2565b90555b565b90915001355f80611b2e565b601f19831691611b5585610aa6565b925f5b818110611b9657509160029391856001969410611b7c575b50505002019055611b38565b611b8c910135601f841690611abd565b90555f8080611b70565b91936020600181928787013581550195019201611b58565b610b52565b90611bbe9291611ae4565b565b90611bd160018060a01b0391611999565b9181191691161790565b90565b90611bf3611bee611bfa92610317565b611bdb565b8254611bc0565b9055565b90565b611c15611c10611c1a92611bfe565b6102ec565b6103ed565b90565b611c31611c2c611c3692611bfe565b6102ec565b610294565b90565b611c4290611c1d565b90565b90611c5160ff91611999565b9181191691161790565b611c6490610382565b90565b90565b90611c7f611c7a611c8692611c5b565b611c67565b8254611c45565b9055565b60081b90565b90611ca3610100600160a81b0391611c8a565b9181191691161790565b90611cc2611cbd611cc992610317565b611bdb565b8254611c90565b9055565b9190601f8111611cdd575b505050565b611ce9611d0e936104a9565b906020611cf5846119de565b83019310611d16575b611d07906119de565b0190611a47565b5f8080611cd8565b9150611d0781929050611cfe565b611d385f611d328354610a73565b83611ccd565b5f80019055565b611d4890611d24565b565b90565b5f5260205f2090565b5490565b611d6381611d56565b821015611d7d57611d75600191611d4d565b910201905f90565b610488565b91906008611da2910291611d9c60018060a01b03846119e8565b926119e8565b9181191691161790565b9190611dc2611dbd611dca93610317565b611bdb565b908354611d82565b9055565b9081549168010000000000000000831015611dfe5782611df6916001611dfc95018155611d5a565b90611dac565b565b610b52565b90565b5f5260205f2090565b5490565b611e1c81611e0f565b821015611e3657611e2e600191611e06565b910201905f90565b610488565b9081549168010000000000000000831015611e6b5782611e63916001611e6995018155611e13565b90611a11565b565b610b52565b90565b5f5260205f2090565b5490565b611e8981611e7c565b821015611ea357611e9b601191611e73565b910201905f90565b610488565b611eb29054610a73565b90565b90808214611f9457611ec681611ea8565b9067ffffffffffffffff8211611f8f57611eea82611ee48554610a73565b85611a66565b5f90601f8311600114611f1d57918091611f0c935f92611f11575b5050611ad2565b90555b565b90915001545f80611f05565b90611f2c601f19841692610aa6565b90611f3685610aa6565b925f5b818110611f7757509160029391856001969410611f5d575b50505002019055611f0f565b611f6d910154601f841690611abd565b90555f8080611f51565b91936001806020928787015481550195019201611f39565b610b52565b5050565b90611fa291611eb5565b565b5f5260205f2090565b5490565b600190818003010490565b90611fcf905f1990602003600802610339565b8154169055565b905f91611fed611fe582610aa6565b928354611ad2565b905555565b919290602082105f1461204b57601f841160011461201b57612015929350611ad2565b90555b5b565b509061204161204693600161203861203285610aa6565b926119de565b82019101611a47565b611fd6565b612018565b50612082829361205c600194610aa6565b61207b612068856119de565b820192601f86168061208d575b506119de565b0190611a47565b600202179055612019565b61209990888603611fbc565b5f612075565b9290916801000000000000000082116120ff576020115f146120f057602081105f146120d4576120ce91611ad2565b90555b5b565b60019160ff19166120e484610aa6565b556002020190556120d1565b600191506002020190556120d2565b610b52565b90815461211081610a73565b90818311612139575b818310612127575b50505050565b61213093611ff2565b5f808080612121565b6121458383838761209f565b612119565b5b818110612156575050565b806121635f600193611a33565b0161214b565b5f61217391612104565b565b905f036121875761218590612169565b565b610a4c565b5b818110612198575050565b806121a55f600193612175565b0161218d565b90918281106121ba575b505050565b6121d86121d26121cc6121e395611fb1565b92611fb1565b92611fa4565b91820191019061218c565b5f80806121b5565b90680100000000000000008111612214578161220961221293611fad565b908281556121ab565b565b610b52565b8181146122705761224561223f61222f84611fad565b9361223a85856121eb565b611fa4565b91611fa4565b5f915b8383106122555750505050565b60018082612264829486611f98565b01920192019190612248565b5050565b9061227e91612219565b565b600190818003010490565b5b818110612297575050565b806122a45f600193611a33565b0161228c565b90918281106122b9575b505050565b6122d76122d16122cb6122e295612280565b92612280565b926104a0565b91820191019061228b565b5f80806122b4565b9068010000000000000000811161231357816123086123119361049c565b908281556122aa565b565b610b52565b60018060a01b031690565b81811461239b576123338261049c565b9167ffffffffffffffff83116123965761236161235b60019261235686866122ea565b6104a0565b926104a0565b9204918154915f925b848410612378575050505050565b60016123848192612318565b9201938454928185015501929061236a565b610b52565b5050565b906123a991612323565b565b5490565b600190818003010490565b5f5260205f2090565b90918281106123d2575b505050565b6123f06123ea6123e46123fb956123af565b926123af565b926123ba565b91820191019061214a565b5f80806123cd565b9068010000000000000000811161242c578161242161242a936123ab565b908281556123c3565b565b610b52565b90565b8181146124ac57612444826123ab565b9167ffffffffffffffff83116124a75761247261246c6001926124678686612403565b6123ba565b926123ba565b9204918154915f925b848410612489575050505050565b60016124958192612431565b9201938454928185015501929061247b565b610b52565b5050565b906124ba91612434565b565b908082036124c9575b5050565b601080836124e75f61264896016124e15f8701610dd7565b906119b7565b6124f8600182016001860190611f98565b612509600282016002860190611f98565b61251a600382016003860190611f98565b6125336004820161252d60048701610df8565b90611bde565b61254c6005820161254660058701610dd7565b906119b7565b6125656006820161255f60068701610dd7565b906119b7565b61257e6007820161257860078701610df8565b90611bde565b61258f600882016008860190612274565b6125a8600982016125a260098701610e19565b90611c6a565b6125c1600982016125bb60098701610e40565b90611cad565b6125da600a82016125d4600a8701610df8565b90611bde565b6125f3600b82016125ed600b8701610df8565b90611bde565b612604600c8201600c86019061239f565b612615600d8201600d8601906124b0565b612626600e8201600e860190611f98565b61263f600f8201612639600f8701610e19565b90611c6a565b01910190611f98565b5f806124c5565b91906126605761265e916124bc565b565b610a4c565b9081549168010000000000000000831015612695578261268d91600161269395018155611e80565b9061264f565b565b610b52565b98969492909795939198506126ae5f610dd7565b6126b78161197d565b6126c1905f6119b7565b9860028a6126ce9161123f565b6126d7906119d7565b988a8a5f01906126e6916119b7565b9089600101916126f592611bb3565b90876002019161270492611bb3565b90856003019161271392611bb3565b33846004019061272291611bde565b8360050190612730916119b7565b5f61273a90611c01565b8360060190612748916119b7565b5f61275290611c39565b836007019061276091611bde565b5f836009019061276f91611c6a565b5f61277990611c39565b836009019061278791611cad565b5f61279190611c39565b83600a019061279f91611bde565b3383600b01906127ae91611bde565b82600e016127bb90611d3f565b5f83600f01906127ca91611c6a565b9082601001916127d992611bb3565b80600c016127e690611d4a565b336127f091611dce565b80600d016127fd90611e03565b4261280791611e3b565b600161281290611e70565b9061281c91612665565b80337fe8bb4e90e950f7b76a8c4e472b3b5e01d41c478f9eeaea36b4ba991f51133f919161284990611223565b9061285390610317565b9161285c610282565b8061286681610750565b0390a390565b90612885989796959493929161288061189c565b611938565b90565b906128ae916128a96128a461289f60073390610323565b610e19565b61190f565b612a5c565b565b5f7f50726f64756374206e6f7420666f756e64000000000000000000000000000000910152565b6128e46011602092610be6565b6128ed816128b0565b0190565b6129069060208101905f8183039101526128d7565b90565b1561291057565b612918610282565b62461bcd60e51b81528061292e600482016128f1565b0390fd5b60207f6f72000000000000000000000000000000000000000000000000000000000000917f4f6e6c792070726f64756365722063616e2061737369676e20696e73706563745f8201520152565b61298c6022604092610be6565b61299581612932565b0190565b6129ae9060208101905f81830391015261297f565b90565b156129b857565b6129c0610282565b62461bcd60e51b8152806129d660048201612999565b0390fd5b5f7f496e73706563746f72206e6f7420726567697374657265640000000000000000910152565b612a0e6018602092610be6565b612a17816129da565b0190565b612a309060208101905f818303910152612a01565b90565b15612a3a57565b612a42610282565b62461bcd60e51b815280612a5860048201612a1b565b0390fd5b612ae7612a73612a6e6002849061123f565b6119d7565b612a9a612a815f8301610dd7565b612a93612a8d5f611c01565b916103ed565b1415612909565b612ac1612aa960048301610df8565b612abb612ab53361029f565b9161029f565b146129b1565b612add612ad8612ad360088790610323565b610e19565b612a33565b6007849101611bde565b90612b1b612b157fe648a62641bbfd5479abb4ad19cdfb9d27614a83d5591aaa86aedeebfc27f3e293611223565b91610317565b91612b24610282565b80612b2e81610750565b0390a3565b90612b3d91612888565b565b5f7f4e6f74206f776e65720000000000000000000000000000000000000000000000910152565b612b736009602092610be6565b612b7c81612b3f565b0190565b612b959060208101905f818303910152612b66565b90565b15612b9f57565b612ba7610282565b62461bcd60e51b815280612bbd60048201612b80565b0390fd5b90612c089291612c0333612bfd612bf77f000000000000000000000000000000000000000000000000000000000000000061029f565b9161029f565b14612b98565b612cd4565b565b5f7f52657461696c657220616c726561647920726567697374657265640000000000910152565b612c3e601b602092610be6565b612c4781612c0a565b0190565b612c609060208101905f818303910152612c31565b90565b15612c6a57565b612c72610282565b62461bcd60e51b815280612c8860048201612c4b565b0390fd5b90825f939282370152565b9190612cb181612caa81612cb695610be6565b8095612c8c565b610b48565b0190565b9091612cd19260208301925f818503910152612c97565b90565b612cf9612cf4612cee612ce9600a8590610323565b610e19565b15610382565b612c63565b612d0f6001612d0a600a8490610323565b611c6a565b612d23612d1c6006611d4a565b8290611dce565b612d3a828490612d35600e8590610a36565b611bb3565b9091612d667fc6b3a3cb893680baef98e6f2f73e2f33a36a14eaea0ba521451d6547ba362b6292610317565b92612d7b612d72610282565b92839283612cba565b0390a2565b90612d8b9291612bc1565b565b612d9561189c565b50612da0600661049c565b90565b612dab61189c565b50612db6600461049c565b90565b60207f6f7220746869732070726f647563740000000000000000000000000000000000917f4e6f742061737369676e6564207175616c69747920696e73706563746f7220665f8201520152565b612e13602f604092610be6565b612e1c81612db9565b0190565b612e359060208101905f818303910152612e06565b90565b15612e3f57565b612e47610282565b62461bcd60e51b815280612e5d60048201612e20565b0390fd5b90612e9d9291612e98612e806007612e7a84600261123f565b01610df8565b612e92612e8c3361029f565b9161029f565b14612e38565b612f24565b565b90565b5f5260205f2090565b5490565b612eb881612eab565b821015612ed257612eca600191612ea2565b910201905f90565b610488565b929190612ee957612ee792611ae4565b565b610a4c565b919082549268010000000000000000841015612f1f5783612f17916001612f1d96018155612eaf565b90612ed7565b565b610b52565b612f4e612f466008612f40612f3b6002869061123f565b6119d7565b01612e9f565b838591612eee565b9091612f7a7f66517c5fee4802af087a3f132eb5270ece8236372ad37fc97736fd588043e25c92611223565b92612f8f612f86610282565b92839283612cba565b0390a2565b90612f9f9291612e61565b565b5f7f4e6f74206469737472696275746f7220666f7220746869732070726f64756374910152565b612fd460208092610be6565b612fdd81612fa1565b0190565b612ff69060208101905f818303910152612fc8565b90565b1561300057565b613008610282565b62461bcd60e51b81528061301e60048201612fe1565b0390fd5b9061305d91613058613040600961303a84600261123f565b01610e40565b61305261304c3361029f565b9161029f565b14612ff9565b613189565b565b60207f7400000000000000000000000000000000000000000000000000000000000000917f4f6e6c79206469737472696275746f7220666f7220746869732070726f6475635f8201520152565b6130b96021604092610be6565b6130c28161305f565b0190565b6130db9060208101905f8183039101526130ac565b90565b156130e557565b6130ed610282565b62461bcd60e51b815280613103600482016130c6565b0390fd5b5f7f52657461696c6572206e6f742072656769737465726564000000000000000000910152565b61313b6017602092610be6565b61314481613107565b0190565b61315d9060208101905f81830391015261312e565b90565b1561316757565b61316f610282565b62461bcd60e51b81528061318560048201613148565b0390fd5b9061319e6131996002849061123f565b6119d7565b916131c66131ad5f8501610dd7565b6131bf6131b95f611c01565b916103ed565b1415612909565b6131ed6131d560098501610e40565b6131e76131e13361029f565b9161029f565b146130de565b6132096132046131ff600a8590610323565b610e19565b613160565b61325b613254600d61321d600b8701610df8565b9561322b86600a8301611bde565b61323886600b8301611bde565b61324e613247600c8301611d4a565b8790611dce565b01611e03565b4290611e3b565b9161329861329261328c7f0ea8df787dde63a7bdc34d17097adf25749a3521f660e92dabdff8d6ee91d18a95611223565b92610317565b92610317565b926132a1610282565b806132ab81610750565b0390a4565b906132ba91613022565b565b606090565b6132ca90610b8f565b90565b613300613305916132dc6132bc565b506132f96132f46132ef600a8490610323565b610e19565b613160565b600e610a36565b6132c1565b90565b61333b613340916133176132bc565b5061333461332f61332a60088490610323565b610e19565b612a33565b600c610a36565b6132c1565b90565b9061338a92916133853361337f6133797f000000000000000000000000000000000000000000000000000000000000000061029f565b9161029f565b14612b98565b61340e565b565b5f7f50726f647563657220616c726561647920726567697374657265640000000000910152565b6133c0601b602092610be6565b6133c98161338c565b0190565b6133e29060208101905f8183039101526133b3565b90565b156133ec57565b6133f4610282565b62461bcd60e51b81528061340a600482016133cd565b0390fd5b61343361342e61342861342360078590610323565b610e19565b15610382565b6133e5565b613449600161344460078490610323565b611c6a565b61345d6134566003611d4a565b8290611dce565b61347482849061346f600b8590610a36565b611bb3565b90916134a07f9f1fa412bb163f6f44a52bf060bb20728f24361929ff4d9785cd40e42768751592610317565b926134b56134ac610282565b92839283612cba565b0390a2565b906134c59291613343565b565b5f7f50726f6475636572206e6f742072656769737465726564000000000000000000910152565b6134fb6017602092610be6565b613504816134c7565b0190565b61351d9060208101905f8183039101526134ee565b90565b1561352757565b61352f610282565b62461bcd60e51b81528061354560048201613508565b0390fd5b61357c613581916135586132bc565b5061357561357061356b60078490610323565b610e19565b613520565b600b610a36565b6132c1565b90565b906135bf916135ba6135a2600761359c84600261123f565b01610df8565b6135b46135ae3361029f565b9161029f565b14612e38565b6135c1565b565b906135f29060066135dc6135d76002869061123f565b6119d7565b916135eb600160098501611c6a565b91016119b7565b336136266136207f08d6065569e454b48393f44317518d1282971813504b4d323942afba2f7a2c5d93611223565b91610317565b9161362f610282565b8061363981610750565b0390a3565b9061364891613584565b565b5f7f4469737472696275746f72206e6f742072656769737465726564000000000000910152565b61367e601a602092610be6565b6136878161364a565b0190565b6136a09060208101905f818303910152613671565b90565b156136aa57565b6136b2610282565b62461bcd60e51b8152806136c86004820161368b565b0390fd5b6136ff613704916136db6132bc565b506136f86136f36136ee60098490610323565b610e19565b6136a3565b600d610a36565b6132c1565b90565b9061372d9161372861372361371e60073390610323565b610e19565b61190f565b6137d7565b565b60207f69676e206469737472696275746f720000000000000000000000000000000000917f4f6e6c792070726f6475636572206f662070726f647563742063616e206173735f8201520152565b613789602f604092610be6565b6137928161372f565b0190565b6137ab9060208101905f81830391015261377c565b90565b156137b557565b6137bd610282565b62461bcd60e51b8152806137d360048201613796565b0390fd5b906137f46137ef6137ea60098490610323565b610e19565b6136a3565b6138086138036002849061123f565b6119d7565b916138306138175f8501610dd7565b6138296138235f611c01565b916103ed565b1415612909565b61385761383f60048501610df8565b61385161384b3361029f565b9161029f565b146137ae565b6138a96138a2600d61386b600b8701610df8565b956138798660098301611cad565b61388686600b8301611bde565b61389c613895600c8301611d4a565b8790611dce565b01611e03565b4290611e3b565b916138e66138e06138da7f0ea8df787dde63a7bdc34d17097adf25749a3521f660e92dabdff8d6ee91d18a95611223565b92610317565b92610317565b926138ef610282565b806138f981610750565b0390a4565b9061390891613707565b565b5f90565b5f90565b61395f6139649161392161189c565b5061392a6132bc565b506139336132bc565b5061393c6132bc565b5061394561390a565b5061394e61390a565b5061395761390e565b50600261123f565b6119d7565b61398b6139725f8301610dd7565b61398461397e5f611c01565b916103ed565b1415612909565b6139965f8201610dd7565b6001820192600283019260038101926139b160048301610df8565b926139e66139e06139da6139d360096139cc600b8901610df8565b9701610e19565b94996132c1565b976132c1565b956132c1565b93929190565b6139f461189c565b506139ff600361049c565b90565b5f7f4e6f742072657461696c657220666f7220746869732070726f64756374000000910152565b613a36601d602092610be6565b613a3f81613a02565b0190565b613a589060208101905f818303910152613a29565b90565b15613a6257565b613a6a610282565b62461bcd60e51b815280613a8060048201613a43565b0390fd5b90613abf91613aba613aa2600a613a9c84600261123f565b01610df8565b613ab4613aae3361029f565b9161029f565b14613a5b565b613b43565b565b5f7f4f6e6c792072657461696c657220666f7220746869732070726f647563740000910152565b613af5601e602092610be6565b613afe81613ac1565b0190565b613b179060208101905f818303910152613ae8565b90565b15613b2157565b613b29610282565b62461bcd60e51b815280613b3f60048201613b02565b0390fd5b90613b58613b536002849061123f565b6119d7565b91613b80613b675f8501610dd7565b613b79613b735f611c01565b916103ed565b1415612909565b613ba7613b8f600a8501610df8565b613ba1613b9b3361029f565b9161029f565b14613b1a565b613c05613bb6600b8501610df8565b93613bc484600b8301611bde565b613bda613bd3600c8301611d4a565b8590611dce565b613bf0613be9600d8301611e03565b4290611e3b565b600f613bfe60098301610e19565b9101611c6a565b91613c42613c3c613c367f0ea8df787dde63a7bdc34d17097adf25749a3521f660e92dabdff8d6ee91d18a95611223565b92610317565b92610317565b92613c4b610282565b80613c5581610750565b0390a4565b90613c6491613a84565b565b90613cad9291613ca833613ca2613c9c7f000000000000000000000000000000000000000000000000000000000000000061029f565b9161029f565b14612b98565b613d31565b565b5f7f4469737472696275746f7220616c726561647920726567697374657265640000910152565b613ce3601e602092610be6565b613cec81613caf565b0190565b613d059060208101905f818303910152613cd6565b90565b15613d0f57565b613d17610282565b62461bcd60e51b815280613d2d60048201613cf0565b0390fd5b613d56613d51613d4b613d4660098590610323565b610e19565b15610382565b613d08565b613d6c6001613d6760098490610323565b611c6a565b613d80613d796005611d4a565b8290611dce565b613d97828490613d92600d8590610a36565b611bb3565b9091613dc37f79e494f40857ea13a4c65649ebb9b33c966a0cbac9c64114112134b4154c4d7a92610317565b92613dd8613dcf610282565b92839283612cba565b0390a2565b90613de89291613c66565b565b90613e319291613e2c33613e26613e207f000000000000000000000000000000000000000000000000000000000000000061029f565b9161029f565b14612b98565b613eb5565b565b5f7f496e73706563746f7220616c7265616479207265676973746572656400000000910152565b613e67601c602092610be6565b613e7081613e33565b0190565b613e899060208101905f818303910152613e5a565b90565b15613e9357565b613e9b610282565b62461bcd60e51b815280613eb160048201613e74565b0390fd5b613eda613ed5613ecf613eca60088590610323565b610e19565b15610382565b613e8c565b613ef06001613eeb60088490610323565b611c6a565b613f04613efd6004611d4a565b8290611dce565b613f1b828490613f16600c8590610a36565b611bb3565b9091613f477f25f1389b331a031b3f5aff7ad7ed7aca3192d65c00343743d82e0d2e7659e7c892610317565b92613f5c613f53610282565b92839283612cba565b0390a2565b90613f6c9291613dea565b565b606090565b606090565b60209181520190565b613f8b9054610de4565b90565b60010190565b90613fb1613fab613fa48461049c565b8093613f78565b926104a0565b905f5b818110613fc15750505090565b909192613fe1613fdb600192613fd687613f81565b611643565b94613f8e565b9101919091613fb4565b90613ff591613f94565b90565b9061401861401192614008610282565b93848092613feb565b0383610b66565b565b61402390613ff8565b90565b60209181520190565b6140399054610dc3565b90565b60010190565b9061405f614059614052846123ab565b8093614026565b926123ba565b905f5b81811061406f5750505090565b90919261408f6140896001926140848761402f565b6116ca565b9461403c565b9101919091614062565b906140a391614042565b90565b906140c66140bf926140b6610282565b93848092614099565b0383610b66565b565b6140d1906140a6565b90565b6140f46140f9916140e3613f6e565b506140ec613f73565b50600261123f565b6119d7565b906141216141085f8401610dd7565b61411a6141145f611c01565b916103ed565b1415612909565b61413b614135600d600c850194019361401a565b926140c8565b90565b6141b86141bd9161414d61189c565b506141566132bc565b5061415f6132bc565b506141686132bc565b5061417161390a565b5061417a61189c565b5061418361189c565b5061418c61390a565b5061419561390e565b5061419e61390a565b506141a761390a565b506141b061390a565b50600261123f565b6119d7565b906141e56141cc5f8401610dd7565b6141de6141d85f611c01565b916103ed565b1415612909565b6141f05f8301610dd7565b9060018301926002810192600382019261420c60048401610df8565b9261421960058201610dd7565b9261422660068301610dd7565b9261423360078401610df8565b9261424060098201610e19565b9261424d60098301610e40565b9261428261427c61427661426f600b614268600a8901610df8565b9701610df8565b949e6132c1565b9c6132c1565b9a6132c1565b98979695949392919056fea2646970667358221220f81ca75530a415de00ad9b1726767a8e7cd3a950625342598fd8263c3fc2e28164736f6c634300081e0033","linkReferences":{}},"methodIdentifiers":{"I_OWNER()":"78dff77b","addCertification(uint256,string)":"52e4b6cf","approveQuality(uint256,uint256)":"99363edb","assignDistributor(uint256,address)":"aa9a533f","assignQualityInspector(uint256,address)":"3d238465","assignRetailer(uint256,address)":"5d389a79","createProduct(string,string,string,uint256,string)":"32e086a1","distributorDetailsByAddress(address)":"7e5395a1","distributorsList(uint256)":"994e8f26","getBasicProductInfo(uint256)":"af5653d3","getDistributorDetails(address)":"9e6c742b","getFullProductDetails(uint256)":"f9070d45","getOwnershipHistory(uint256)":"f1dbaccb","getProducerDetails(address)":"98812dab","getQualityInspectorDetails(address)":"73b274ab","getRetailerDetails(address)":"63ba8315","isDistributorRegistered(address)":"051fbd79","isProducerRegistered(address)":"605f9998","isQualityInspectorRegistered(address)":"de83612d","isRetailerRegistered(address)":"0d1a9f34","nextProductId()":"4de91a63","producerDetailsByAddress(address)":"6c230be8","producersList(uint256)":"0cc94acc","productById(uint256)":"a30b475f","products(uint256)":"7acc0b20","qualityInspectorDetailsByAddress(address)":"edd4b7f5","qualityInspectorsList(uint256)":"487a0b27","registerDistributor(address,string)":"d7fa5473","registerProducer(address,string)":"8e0e4e09","registerQualityInspector(address,string)":"e77d8c79","registerRetailer(address,string)":"45ea9e52","retailerDetailsByAddress(address)":"6185109d","retailersList(uint256)":"e0623046","sellToConsumer(uint256,address)":"bf191169","totalDistributors()":"09b96e06","totalProducers()":"b2db6140","totalQualityInspectors()":"4c37cf65","totalRetailers()":"48712767"},"id":21}